{
  "_format": "hh-sol-artifact-1",
  "contractName": "NFTMarketplace",
  "sourceName": "contracts/NFTMarketplace.sol",
  "abi": [
    {
      "inputs": [],
      "stateMutability": "nonpayable",
      "type": "constructor"
    },
    {
      "anonymous": false,
      "inputs": [
        {
          "indexed": true,
          "internalType": "address",
          "name": "owner",
          "type": "address"
        },
        {
          "indexed": true,
          "internalType": "address",
          "name": "approved",
          "type": "address"
        },
        {
          "indexed": true,
          "internalType": "uint256",
          "name": "tokenId",
          "type": "uint256"
        }
      ],
      "name": "Approval",
      "type": "event"
    },
    {
      "anonymous": false,
      "inputs": [
        {
          "indexed": true,
          "internalType": "address",
          "name": "owner",
          "type": "address"
        },
        {
          "indexed": true,
          "internalType": "address",
          "name": "operator",
          "type": "address"
        },
        {
          "indexed": false,
          "internalType": "bool",
          "name": "approved",
          "type": "bool"
        }
      ],
      "name": "ApprovalForAll",
      "type": "event"
    },
    {
      "anonymous": false,
      "inputs": [
        {
          "indexed": false,
          "internalType": "uint256",
          "name": "_fromTokenId",
          "type": "uint256"
        },
        {
          "indexed": false,
          "internalType": "uint256",
          "name": "_toTokenId",
          "type": "uint256"
        }
      ],
      "name": "BatchMetadataUpdate",
      "type": "event"
    },
    {
      "anonymous": false,
      "inputs": [
        {
          "indexed": true,
          "internalType": "uint256",
          "name": "tokenId",
          "type": "uint256"
        },
        {
          "indexed": false,
          "internalType": "address",
          "name": "seller",
          "type": "address"
        },
        {
          "indexed": false,
          "internalType": "address",
          "name": "owner",
          "type": "address"
        },
        {
          "indexed": false,
          "internalType": "uint256",
          "name": "price",
          "type": "uint256"
        },
        {
          "indexed": false,
          "internalType": "bool",
          "name": "sold",
          "type": "bool"
        }
      ],
      "name": "MarketItemCreated",
      "type": "event"
    },
    {
      "anonymous": false,
      "inputs": [
        {
          "indexed": false,
          "internalType": "uint256",
          "name": "_tokenId",
          "type": "uint256"
        }
      ],
      "name": "MetadataUpdate",
      "type": "event"
    },
    {
      "anonymous": false,
      "inputs": [
        {
          "indexed": true,
          "internalType": "address",
          "name": "from",
          "type": "address"
        },
        {
          "indexed": true,
          "internalType": "address",
          "name": "to",
          "type": "address"
        },
        {
          "indexed": true,
          "internalType": "uint256",
          "name": "tokenId",
          "type": "uint256"
        }
      ],
      "name": "Transfer",
      "type": "event"
    },
    {
      "inputs": [
        {
          "internalType": "address",
          "name": "to",
          "type": "address"
        },
        {
          "internalType": "uint256",
          "name": "tokenId",
          "type": "uint256"
        }
      ],
      "name": "approve",
      "outputs": [],
      "stateMutability": "nonpayable",
      "type": "function"
    },
    {
      "inputs": [
        {
          "internalType": "address",
          "name": "owner",
          "type": "address"
        }
      ],
      "name": "balanceOf",
      "outputs": [
        {
          "internalType": "uint256",
          "name": "",
          "type": "uint256"
        }
      ],
      "stateMutability": "view",
      "type": "function"
    },
    {
      "inputs": [
        {
          "internalType": "uint256",
          "name": "tokenId",
          "type": "uint256"
        }
      ],
      "name": "createMarketSale",
      "outputs": [],
      "stateMutability": "payable",
      "type": "function"
    },
    {
      "inputs": [
        {
          "internalType": "string",
          "name": "tokenURI",
          "type": "string"
        },
        {
          "internalType": "uint256",
          "name": "price",
          "type": "uint256"
        }
      ],
      "name": "createToken",
      "outputs": [
        {
          "internalType": "uint256",
          "name": "",
          "type": "uint256"
        }
      ],
      "stateMutability": "payable",
      "type": "function"
    },
    {
      "inputs": [],
      "name": "fetchItemsListed",
      "outputs": [
        {
          "components": [
            {
              "internalType": "uint256",
              "name": "tokenId",
              "type": "uint256"
            },
            {
              "internalType": "address payable",
              "name": "seller",
              "type": "address"
            },
            {
              "internalType": "address payable",
              "name": "owner",
              "type": "address"
            },
            {
              "internalType": "uint256",
              "name": "price",
              "type": "uint256"
            },
            {
              "internalType": "bool",
              "name": "sold",
              "type": "bool"
            }
          ],
          "internalType": "struct NFTMarketplace.MarketItem[]",
          "name": "",
          "type": "tuple[]"
        }
      ],
      "stateMutability": "view",
      "type": "function"
    },
    {
      "inputs": [],
      "name": "fetchMarketItems",
      "outputs": [
        {
          "components": [
            {
              "internalType": "uint256",
              "name": "tokenId",
              "type": "uint256"
            },
            {
              "internalType": "address payable",
              "name": "seller",
              "type": "address"
            },
            {
              "internalType": "address payable",
              "name": "owner",
              "type": "address"
            },
            {
              "internalType": "uint256",
              "name": "price",
              "type": "uint256"
            },
            {
              "internalType": "bool",
              "name": "sold",
              "type": "bool"
            }
          ],
          "internalType": "struct NFTMarketplace.MarketItem[]",
          "name": "",
          "type": "tuple[]"
        }
      ],
      "stateMutability": "view",
      "type": "function"
    },
    {
      "inputs": [],
      "name": "fetchMyItems",
      "outputs": [
        {
          "components": [
            {
              "internalType": "uint256",
              "name": "tokenId",
              "type": "uint256"
            },
            {
              "internalType": "address payable",
              "name": "seller",
              "type": "address"
            },
            {
              "internalType": "address payable",
              "name": "owner",
              "type": "address"
            },
            {
              "internalType": "uint256",
              "name": "price",
              "type": "uint256"
            },
            {
              "internalType": "bool",
              "name": "sold",
              "type": "bool"
            }
          ],
          "internalType": "struct NFTMarketplace.MarketItem[]",
          "name": "",
          "type": "tuple[]"
        }
      ],
      "stateMutability": "view",
      "type": "function"
    },
    {
      "inputs": [
        {
          "internalType": "uint256",
          "name": "tokenId",
          "type": "uint256"
        }
      ],
      "name": "getApproved",
      "outputs": [
        {
          "internalType": "address",
          "name": "",
          "type": "address"
        }
      ],
      "stateMutability": "view",
      "type": "function"
    },
    {
      "inputs": [],
      "name": "getListingPrice",
      "outputs": [
        {
          "internalType": "uint256",
          "name": "",
          "type": "uint256"
        }
      ],
      "stateMutability": "view",
      "type": "function"
    },
    {
      "inputs": [],
      "name": "getOwnerCommissionPercentage",
      "outputs": [
        {
          "internalType": "uint256",
          "name": "",
          "type": "uint256"
        }
      ],
      "stateMutability": "view",
      "type": "function"
    },
    {
      "inputs": [
        {
          "internalType": "address",
          "name": "owner",
          "type": "address"
        },
        {
          "internalType": "address",
          "name": "operator",
          "type": "address"
        }
      ],
      "name": "isApprovedForAll",
      "outputs": [
        {
          "internalType": "bool",
          "name": "",
          "type": "bool"
        }
      ],
      "stateMutability": "view",
      "type": "function"
    },
    {
      "inputs": [],
      "name": "name",
      "outputs": [
        {
          "internalType": "string",
          "name": "",
          "type": "string"
        }
      ],
      "stateMutability": "view",
      "type": "function"
    },
    {
      "inputs": [
        {
          "internalType": "uint256",
          "name": "tokenId",
          "type": "uint256"
        }
      ],
      "name": "ownerOf",
      "outputs": [
        {
          "internalType": "address",
          "name": "",
          "type": "address"
        }
      ],
      "stateMutability": "view",
      "type": "function"
    },
    {
      "inputs": [
        {
          "internalType": "uint256",
          "name": "tokenId",
          "type": "uint256"
        },
        {
          "internalType": "uint256",
          "name": "price",
          "type": "uint256"
        }
      ],
      "name": "resellToken",
      "outputs": [],
      "stateMutability": "payable",
      "type": "function"
    },
    {
      "inputs": [
        {
          "internalType": "address",
          "name": "from",
          "type": "address"
        },
        {
          "internalType": "address",
          "name": "to",
          "type": "address"
        },
        {
          "internalType": "uint256",
          "name": "tokenId",
          "type": "uint256"
        }
      ],
      "name": "safeTransferFrom",
      "outputs": [],
      "stateMutability": "nonpayable",
      "type": "function"
    },
    {
      "inputs": [
        {
          "internalType": "address",
          "name": "from",
          "type": "address"
        },
        {
          "internalType": "address",
          "name": "to",
          "type": "address"
        },
        {
          "internalType": "uint256",
          "name": "tokenId",
          "type": "uint256"
        },
        {
          "internalType": "bytes",
          "name": "data",
          "type": "bytes"
        }
      ],
      "name": "safeTransferFrom",
      "outputs": [],
      "stateMutability": "nonpayable",
      "type": "function"
    },
    {
      "inputs": [
        {
          "internalType": "address",
          "name": "operator",
          "type": "address"
        },
        {
          "internalType": "bool",
          "name": "approved",
          "type": "bool"
        }
      ],
      "name": "setApprovalForAll",
      "outputs": [],
      "stateMutability": "nonpayable",
      "type": "function"
    },
    {
      "inputs": [
        {
          "internalType": "bytes4",
          "name": "interfaceId",
          "type": "bytes4"
        }
      ],
      "name": "supportsInterface",
      "outputs": [
        {
          "internalType": "bool",
          "name": "",
          "type": "bool"
        }
      ],
      "stateMutability": "view",
      "type": "function"
    },
    {
      "inputs": [],
      "name": "symbol",
      "outputs": [
        {
          "internalType": "string",
          "name": "",
          "type": "string"
        }
      ],
      "stateMutability": "view",
      "type": "function"
    },
    {
      "inputs": [
        {
          "internalType": "uint256",
          "name": "tokenId",
          "type": "uint256"
        }
      ],
      "name": "tokenURI",
      "outputs": [
        {
          "internalType": "string",
          "name": "",
          "type": "string"
        }
      ],
      "stateMutability": "view",
      "type": "function"
    },
    {
      "inputs": [
        {
          "internalType": "address",
          "name": "from",
          "type": "address"
        },
        {
          "internalType": "address",
          "name": "to",
          "type": "address"
        },
        {
          "internalType": "uint256",
          "name": "tokenId",
          "type": "uint256"
        }
      ],
      "name": "transferFrom",
      "outputs": [],
      "stateMutability": "nonpayable",
      "type": "function"
    },
    {
      "inputs": [
        {
          "internalType": "uint256",
          "name": "_listingPrice",
          "type": "uint256"
        }
      ],
      "name": "updateListingPrice",
      "outputs": [],
      "stateMutability": "payable",
      "type": "function"
    },
    {
      "inputs": [
        {
          "internalType": "uint256",
          "name": "_ownerCommissionPercentage",
          "type": "uint256"
        }
      ],
      "name": "updateOwnerCommissionPercentage",
      "outputs": [],
      "stateMutability": "payable",
      "type": "function"
    }
  ],
  "bytecode": "0x6080604052670de0b6b3a76400006009556019600a55600a546103e86200002791906200014a565b600b553480156200003757600080fd5b506040518060400160405280600781526020017f41727462797465000000000000000000000000000000000000000000000000008152506040518060400160405280600381526020017f41525400000000000000000000000000000000000000000000000000000000008152508160009081620000b59190620003f5565b508060019081620000c79190620003f5565b50505033600c60006101000a81548173ffffffffffffffffffffffffffffffffffffffff021916908373ffffffffffffffffffffffffffffffffffffffff160217905550620004dc565b6000819050919050565b7f4e487b7100000000000000000000000000000000000000000000000000000000600052601160045260246000fd5b6000620001578262000111565b9150620001648362000111565b92508282039050818111156200017f576200017e6200011b565b5b92915050565b600081519050919050565b7f4e487b7100000000000000000000000000000000000000000000000000000000600052604160045260246000fd5b7f4e487b7100000000000000000000000000000000000000000000000000000000600052602260045260246000fd5b600060028204905060018216806200020757607f821691505b6020821081036200021d576200021c620001bf565b5b50919050565b60008190508160005260206000209050919050565b60006020601f8301049050919050565b600082821b905092915050565b600060088302620002877fffffffffffffffffffffffffffffffffffffffffffffffffffffffffffffffff8262000248565b62000293868362000248565b95508019841693508086168417925050509392505050565b6000819050919050565b6000620002d6620002d0620002ca8462000111565b620002ab565b62000111565b9050919050565b6000819050919050565b620002f283620002b5565b6200030a6200030182620002dd565b84845462000255565b825550505050565b600090565b6200032162000312565b6200032e818484620002e7565b505050565b5b8181101562000356576200034a60008262000317565b60018101905062000334565b5050565b601f821115620003a5576200036f8162000223565b6200037a8462000238565b810160208510156200038a578190505b620003a2620003998562000238565b83018262000333565b50505b505050565b600082821c905092915050565b6000620003ca60001984600802620003aa565b1980831691505092915050565b6000620003e58383620003b7565b9150826002028217905092915050565b620004008262000185565b67ffffffffffffffff8111156200041c576200041b62000190565b5b620004288254620001ee565b620004358282856200035a565b600060209050601f8311600181146200046d576000841562000458578287015190505b620004648582620003d7565b865550620004d4565b601f1984166200047d8662000223565b60005b82811015620004a75784890151825560018201915060208501945060208101905062000480565b86831015620004c75784890151620004c3601f891682620003b7565b8355505b6001600288020188555050505b505050505050565b61450680620004ec6000396000f3fe6080604052600436106101405760003560e01c80636352211e116100b6578063b88d4fde1161006f578063b88d4fde14610447578063be9af53614610470578063c87b56dd1461048c578063e219fc75146104c9578063e985e9c5146104e5578063f060a4471461052257610140565b80636352211e1461032d57806370a082311461036a57806372b3b620146103a757806395d89b41146103d7578063a22cb46514610402578063ae677aa31461042b57610140565b806312e855851161010857806312e855851461023e57806315c9ae101461026957806323b872dd146102945780633ff7abca146102bd57806342842e0e146102d957806345f8fa801461030257610140565b806301ffc9a71461014557806306fdde0314610182578063081812fc146101ad578063095ea7b3146101ea5780630f08efe014610213575b600080fd5b34801561015157600080fd5b5061016c60048036038101906101679190612d57565b61054d565b6040516101799190612d9f565b60405180910390f35b34801561018e57600080fd5b506101976105ae565b6040516101a49190612e4a565b60405180910390f35b3480156101b957600080fd5b506101d460048036038101906101cf9190612ea2565b610640565b6040516101e19190612f10565b60405180910390f35b3480156101f657600080fd5b50610211600480360381019061020c9190612f57565b610686565b005b34801561021f57600080fd5b5061022861079d565b60405161023591906130ed565b60405180910390f35b34801561024a57600080fd5b50610253610a05565b604051610260919061311e565b60405180910390f35b34801561027557600080fd5b5061027e610a0f565b60405161028b91906130ed565b60405180910390f35b3480156102a057600080fd5b506102bb60048036038101906102b69190613139565b610cfb565b005b6102d760048036038101906102d29190612ea2565b610d5b565b005b3480156102e557600080fd5b5061030060048036038101906102fb9190613139565b610df5565b005b34801561030e57600080fd5b50610317610e15565b60405161032491906130ed565b60405180910390f35b34801561033957600080fd5b50610354600480360381019061034f9190612ea2565b611101565b6040516103619190612f10565b60405180910390f35b34801561037657600080fd5b50610391600480360381019061038c919061318c565b611187565b60405161039e919061311e565b60405180910390f35b6103c160048036038101906103bc91906132ee565b61123e565b6040516103ce919061311e565b60405180910390f35b3480156103e357600080fd5b506103ec611280565b6040516103f99190612e4a565b60405180910390f35b34801561040e57600080fd5b5061042960048036038101906104249190613376565b611312565b005b61044560048036038101906104409190612ea2565b611328565b005b34801561045357600080fd5b5061046e60048036038101906104699190613457565b6113c2565b005b61048a60048036038101906104859190612ea2565b611424565b005b34801561049857600080fd5b506104b360048036038101906104ae9190612ea2565b6116db565b6040516104c09190612e4a565b60405180910390f35b6104e360048036038101906104de91906134da565b6117ed565b005b3480156104f157600080fd5b5061050c6004803603810190610507919061351a565b6119e2565b6040516105199190612d9f565b60405180910390f35b34801561052e57600080fd5b50610537611a76565b604051610544919061311e565b60405180910390f35b6000634906490660e01b7bffffffffffffffffffffffffffffffffffffffffffffffffffffffff1916827bffffffffffffffffffffffffffffffffffffffffffffffffffffffff191614806105a757506105a682611a80565b5b9050919050565b6060600080546105bd90613589565b80601f01602080910402602001604051908101604052809291908181526020018280546105e990613589565b80156106365780601f1061060b57610100808354040283529160200191610636565b820191906000526020600020905b81548152906001019060200180831161061957829003601f168201915b5050505050905090565b600061064b82611b62565b6004600083815260200190815260200160002060009054906101000a900473ffffffffffffffffffffffffffffffffffffffff169050919050565b600061069182611101565b90508073ffffffffffffffffffffffffffffffffffffffff168373ffffffffffffffffffffffffffffffffffffffff1603610701576040517f08c379a00000000000000000000000000000000000000000000000000000000081526004016106f89061362c565b60405180910390fd5b8073ffffffffffffffffffffffffffffffffffffffff16610720611bad565b73ffffffffffffffffffffffffffffffffffffffff16148061074f575061074e81610749611bad565b6119e2565b5b61078e576040517f08c379a0000000000000000000000000000000000000000000000000000000008152600401610785906136be565b60405180910390fd5b6107988383611bb5565b505050565b606060006107ab6007611c6e565b905060006107b96008611c6e565b6107c36007611c6e565b6107cd919061370d565b90506000808267ffffffffffffffff8111156107ec576107eb6131c3565b5b60405190808252806020026020018201604052801561082557816020015b610812612c8e565b81526020019060019003908161080a5790505b50905060005b848110156109fa573073ffffffffffffffffffffffffffffffffffffffff16600d600060018461085b9190613741565b815260200190815260200160002060020160009054906101000a900473ffffffffffffffffffffffffffffffffffffffff1673ffffffffffffffffffffffffffffffffffffffff16036109e75760006001826108b79190613741565b90506000600d60008381526020019081526020016000209050806040518060a0016040529081600082015481526020016001820160009054906101000a900473ffffffffffffffffffffffffffffffffffffffff1673ffffffffffffffffffffffffffffffffffffffff1673ffffffffffffffffffffffffffffffffffffffff1681526020016002820160009054906101000a900473ffffffffffffffffffffffffffffffffffffffff1673ffffffffffffffffffffffffffffffffffffffff1673ffffffffffffffffffffffffffffffffffffffff168152602001600382015481526020016004820160009054906101000a900460ff1615151515815250508486815181106109ca576109c9613775565b5b60200260200101819052506001856109e29190613741565b945050505b80806109f2906137a4565b91505061082b565b508094505050505090565b6000600954905090565b60606000610a1d6007611c6e565b905060008060005b83811015610ac5573373ffffffffffffffffffffffffffffffffffffffff16600d6000600184610a559190613741565b815260200190815260200160002060020160009054906101000a900473ffffffffffffffffffffffffffffffffffffffff1673ffffffffffffffffffffffffffffffffffffffff1603610ab257600183610aaf9190613741565b92505b8080610abd906137a4565b915050610a25565b5060008267ffffffffffffffff811115610ae257610ae16131c3565b5b604051908082528060200260200182016040528015610b1b57816020015b610b08612c8e565b815260200190600190039081610b005790505b50905060005b84811015610cf0573373ffffffffffffffffffffffffffffffffffffffff16600d6000600184610b519190613741565b815260200190815260200160002060020160009054906101000a900473ffffffffffffffffffffffffffffffffffffffff1673ffffffffffffffffffffffffffffffffffffffff1603610cdd576000600182610bad9190613741565b90506000600d60008381526020019081526020016000209050806040518060a0016040529081600082015481526020016001820160009054906101000a900473ffffffffffffffffffffffffffffffffffffffff1673ffffffffffffffffffffffffffffffffffffffff1673ffffffffffffffffffffffffffffffffffffffff1681526020016002820160009054906101000a900473ffffffffffffffffffffffffffffffffffffffff1673ffffffffffffffffffffffffffffffffffffffff1673ffffffffffffffffffffffffffffffffffffffff168152602001600382015481526020016004820160009054906101000a900460ff161515151581525050848681518110610cc057610cbf613775565b5b6020026020010181905250600185610cd89190613741565b945050505b8080610ce8906137a4565b915050610b21565b508094505050505090565b610d0c610d06611bad565b82611c7c565b610d4b576040517f08c379a0000000000000000000000000000000000000000000000000000000008152600401610d429061385e565b60405180910390fd5b610d56838383611d11565b505050565b3373ffffffffffffffffffffffffffffffffffffffff16600c60009054906101000a900473ffffffffffffffffffffffffffffffffffffffff1673ffffffffffffffffffffffffffffffffffffffff1614610deb576040517f08c379a0000000000000000000000000000000000000000000000000000000008152600401610de2906138f0565b60405180910390fd5b80600a8190555050565b610e10838383604051806020016040528060008152506113c2565b505050565b60606000610e236007611c6e565b905060008060005b83811015610ecb573373ffffffffffffffffffffffffffffffffffffffff16600d6000600184610e5b9190613741565b815260200190815260200160002060010160009054906101000a900473ffffffffffffffffffffffffffffffffffffffff1673ffffffffffffffffffffffffffffffffffffffff1603610eb857600183610eb59190613741565b92505b8080610ec3906137a4565b915050610e2b565b5060008267ffffffffffffffff811115610ee857610ee76131c3565b5b604051908082528060200260200182016040528015610f2157816020015b610f0e612c8e565b815260200190600190039081610f065790505b50905060005b848110156110f6573373ffffffffffffffffffffffffffffffffffffffff16600d6000600184610f579190613741565b815260200190815260200160002060010160009054906101000a900473ffffffffffffffffffffffffffffffffffffffff1673ffffffffffffffffffffffffffffffffffffffff16036110e3576000600182610fb39190613741565b90506000600d60008381526020019081526020016000209050806040518060a0016040529081600082015481526020016001820160009054906101000a900473ffffffffffffffffffffffffffffffffffffffff1673ffffffffffffffffffffffffffffffffffffffff1673ffffffffffffffffffffffffffffffffffffffff1681526020016002820160009054906101000a900473ffffffffffffffffffffffffffffffffffffffff1673ffffffffffffffffffffffffffffffffffffffff1673ffffffffffffffffffffffffffffffffffffffff168152602001600382015481526020016004820160009054906101000a900460ff1615151515815250508486815181106110c6576110c5613775565b5b60200260200101819052506001856110de9190613741565b945050505b80806110ee906137a4565b915050610f27565b508094505050505090565b60008061110d8361200a565b9050600073ffffffffffffffffffffffffffffffffffffffff168173ffffffffffffffffffffffffffffffffffffffff160361117e576040517f08c379a00000000000000000000000000000000000000000000000000000000081526004016111759061395c565b60405180910390fd5b80915050919050565b60008073ffffffffffffffffffffffffffffffffffffffff168273ffffffffffffffffffffffffffffffffffffffff16036111f7576040517f08c379a00000000000000000000000000000000000000000000000000000000081526004016111ee906139ee565b60405180910390fd5b600360008373ffffffffffffffffffffffffffffffffffffffff1673ffffffffffffffffffffffffffffffffffffffff168152602001908152602001600020549050919050565b600061124a6007612047565b60006112566007611c6e565b9050611262338261205d565b61126c818561227a565b611276818461231e565b8091505092915050565b60606001805461128f90613589565b80601f01602080910402602001604051908101604052809291908181526020018280546112bb90613589565b80156113085780601f106112dd57610100808354040283529160200191611308565b820191906000526020600020905b8154815290600101906020018083116112eb57829003601f168201915b5050505050905090565b61132461131d611bad565b8383612521565b5050565b3373ffffffffffffffffffffffffffffffffffffffff16600c60009054906101000a900473ffffffffffffffffffffffffffffffffffffffff1673ffffffffffffffffffffffffffffffffffffffff16146113b8576040517f08c379a00000000000000000000000000000000000000000000000000000000081526004016113af906138f0565b60405180910390fd5b8060098190555050565b6113d36113cd611bad565b83611c7c565b611412576040517f08c379a00000000000000000000000000000000000000000000000000000000081526004016114099061385e565b60405180910390fd5b61141e8484848461268d565b50505050565b6000600d60008381526020019081526020016000206003015490506000600d600084815260200190815260200160002060010160009054906101000a900473ffffffffffffffffffffffffffffffffffffffff1690508134146114bc576040517f08c379a00000000000000000000000000000000000000000000000000000000081526004016114b390613a80565b60405180910390fd5b33600d600085815260200190815260200160002060020160006101000a81548173ffffffffffffffffffffffffffffffffffffffff021916908373ffffffffffffffffffffffffffffffffffffffff1602179055506001600d600085815260200190815260200160002060040160006101000a81548160ff0219169083151502179055506000600d600085815260200190815260200160002060010160006101000a81548173ffffffffffffffffffffffffffffffffffffffff021916908373ffffffffffffffffffffffffffffffffffffffff1602179055506115a06008612047565b6115ab303385611d11565b600c60009054906101000a900473ffffffffffffffffffffffffffffffffffffffff1673ffffffffffffffffffffffffffffffffffffffff166108fc6009549081150290604051600060405180830381858888f19350505050158015611615573d6000803e3d6000fd5b50600c60009054906101000a900473ffffffffffffffffffffffffffffffffffffffff1673ffffffffffffffffffffffffffffffffffffffff166108fc61165b346126e9565b9081150290604051600060405180830381858888f19350505050158015611686573d6000803e3d6000fd5b508073ffffffffffffffffffffffffffffffffffffffff166108fc6116aa3461270d565b9081150290604051600060405180830381858888f193505050501580156116d5573d6000803e3d6000fd5b50505050565b60606116e682611b62565b600060066000848152602001908152602001600020805461170690613589565b80601f016020809104026020016040519081016040528092919081815260200182805461173290613589565b801561177f5780601f106117545761010080835404028352916020019161177f565b820191906000526020600020905b81548152906001019060200180831161176257829003601f168201915b505050505090506000611790612731565b905060008151036117a55781925050506117e8565b6000825111156117da5780826040516020016117c2929190613adc565b604051602081830303815290604052925050506117e8565b6117e384612748565b925050505b919050565b3373ffffffffffffffffffffffffffffffffffffffff16600d600084815260200190815260200160002060020160009054906101000a900473ffffffffffffffffffffffffffffffffffffffff1673ffffffffffffffffffffffffffffffffffffffff1614611891576040517f08c379a000000000000000000000000000000000000000000000000000000000815260040161188890613b72565b60405180910390fd5b60095434146118d5576040517f08c379a00000000000000000000000000000000000000000000000000000000081526004016118cc90613c04565b60405180910390fd5b6000600d600084815260200190815260200160002060040160006101000a81548160ff02191690831515021790555080600d60008481526020019081526020016000206003018190555033600d600084815260200190815260200160002060010160006101000a81548173ffffffffffffffffffffffffffffffffffffffff021916908373ffffffffffffffffffffffffffffffffffffffff16021790555030600d600084815260200190815260200160002060020160006101000a81548173ffffffffffffffffffffffffffffffffffffffff021916908373ffffffffffffffffffffffffffffffffffffffff1602179055506119d360086127b0565b6119de333084611d11565b5050565b6000600560008473ffffffffffffffffffffffffffffffffffffffff1673ffffffffffffffffffffffffffffffffffffffff16815260200190815260200160002060008373ffffffffffffffffffffffffffffffffffffffff1673ffffffffffffffffffffffffffffffffffffffff16815260200190815260200160002060009054906101000a900460ff16905092915050565b6000600a54905090565b60007f80ac58cd000000000000000000000000000000000000000000000000000000007bffffffffffffffffffffffffffffffffffffffffffffffffffffffff1916827bffffffffffffffffffffffffffffffffffffffffffffffffffffffff19161480611b4b57507f5b5e139f000000000000000000000000000000000000000000000000000000007bffffffffffffffffffffffffffffffffffffffffffffffffffffffff1916827bffffffffffffffffffffffffffffffffffffffffffffffffffffffff1916145b80611b5b5750611b5a8261280c565b5b9050919050565b611b6b81612876565b611baa576040517f08c379a0000000000000000000000000000000000000000000000000000000008152600401611ba19061395c565b60405180910390fd5b50565b600033905090565b816004600083815260200190815260200160002060006101000a81548173ffffffffffffffffffffffffffffffffffffffff021916908373ffffffffffffffffffffffffffffffffffffffff160217905550808273ffffffffffffffffffffffffffffffffffffffff16611c2883611101565b73ffffffffffffffffffffffffffffffffffffffff167f8c5be1e5ebec7d5bd14f71427d1e84f3dd0314c0f7b2291e5b200ac8c7c3b92560405160405180910390a45050565b600081600001549050919050565b600080611c8883611101565b90508073ffffffffffffffffffffffffffffffffffffffff168473ffffffffffffffffffffffffffffffffffffffff161480611cca5750611cc981856119e2565b5b80611d0857508373ffffffffffffffffffffffffffffffffffffffff16611cf084610640565b73ffffffffffffffffffffffffffffffffffffffff16145b91505092915050565b8273ffffffffffffffffffffffffffffffffffffffff16611d3182611101565b73ffffffffffffffffffffffffffffffffffffffff1614611d87576040517f08c379a0000000000000000000000000000000000000000000000000000000008152600401611d7e90613c96565b60405180910390fd5b600073ffffffffffffffffffffffffffffffffffffffff168273ffffffffffffffffffffffffffffffffffffffff1603611df6576040517f08c379a0000000000000000000000000000000000000000000000000000000008152600401611ded90613d28565b60405180910390fd5b611e0383838360016128b7565b8273ffffffffffffffffffffffffffffffffffffffff16611e2382611101565b73ffffffffffffffffffffffffffffffffffffffff1614611e79576040517f08c379a0000000000000000000000000000000000000000000000000000000008152600401611e7090613c96565b60405180910390fd5b6004600082815260200190815260200160002060006101000a81549073ffffffffffffffffffffffffffffffffffffffff02191690556001600360008573ffffffffffffffffffffffffffffffffffffffff1673ffffffffffffffffffffffffffffffffffffffff168152602001908152602001600020600082825403925050819055506001600360008473ffffffffffffffffffffffffffffffffffffffff1673ffffffffffffffffffffffffffffffffffffffff16815260200190815260200160002060008282540192505081905550816002600083815260200190815260200160002060006101000a81548173ffffffffffffffffffffffffffffffffffffffff021916908373ffffffffffffffffffffffffffffffffffffffff160217905550808273ffffffffffffffffffffffffffffffffffffffff168473ffffffffffffffffffffffffffffffffffffffff167fddf252ad1be2c89b69c2b068fc378daa952ba7f163c4a11628f55a4df523b3ef60405160405180910390a461200583838360016128bd565b505050565b60006002600083815260200190815260200160002060009054906101000a900473ffffffffffffffffffffffffffffffffffffffff169050919050565b6001816000016000828254019250508190555050565b600073ffffffffffffffffffffffffffffffffffffffff168273ffffffffffffffffffffffffffffffffffffffff16036120cc576040517f08c379a00000000000000000000000000000000000000000000000000000000081526004016120c390613d94565b60405180910390fd5b6120d581612876565b15612115576040517f08c379a000000000000000000000000000000000000000000000000000000000815260040161210c90613e00565b60405180910390fd5b6121236000838360016128b7565b61212c81612876565b1561216c576040517f08c379a000000000000000000000000000000000000000000000000000000000815260040161216390613e00565b60405180910390fd5b6001600360008473ffffffffffffffffffffffffffffffffffffffff1673ffffffffffffffffffffffffffffffffffffffff16815260200190815260200160002060008282540192505081905550816002600083815260200190815260200160002060006101000a81548173ffffffffffffffffffffffffffffffffffffffff021916908373ffffffffffffffffffffffffffffffffffffffff160217905550808273ffffffffffffffffffffffffffffffffffffffff16600073ffffffffffffffffffffffffffffffffffffffff167fddf252ad1be2c89b69c2b068fc378daa952ba7f163c4a11628f55a4df523b3ef60405160405180910390a46122766000838360016128bd565b5050565b61228382612876565b6122c2576040517f08c379a00000000000000000000000000000000000000000000000000000000081526004016122b990613e92565b60405180910390fd5b806006600084815260200190815260200160002090816122e2919061405e565b507ff8e1a15aba9398e019f0b49df1a4fde98ee17ae345cb5f6b5e2c27f5033e8ce782604051612312919061311e565b60405180910390a15050565b60008111612361576040517f08c379a00000000000000000000000000000000000000000000000000000000081526004016123589061417c565b60405180910390fd5b60095434146123a5576040517f08c379a000000000000000000000000000000000000000000000000000000000815260040161239c90613c04565b60405180910390fd5b6040518060a001604052808381526020013373ffffffffffffffffffffffffffffffffffffffff1681526020013073ffffffffffffffffffffffffffffffffffffffff16815260200182815260200160001515815250600d60008481526020019081526020016000206000820151816000015560208201518160010160006101000a81548173ffffffffffffffffffffffffffffffffffffffff021916908373ffffffffffffffffffffffffffffffffffffffff16021790555060408201518160020160006101000a81548173ffffffffffffffffffffffffffffffffffffffff021916908373ffffffffffffffffffffffffffffffffffffffff1602179055506060820151816003015560808201518160040160006101000a81548160ff0219169083151502179055509050506124de333084611d11565b817fb640004f1d14576d0c209e240cad0410e0d8c0c33a09375861fbadae2588a98d3330846000604051612515949392919061419c565b60405180910390a25050565b8173ffffffffffffffffffffffffffffffffffffffff168373ffffffffffffffffffffffffffffffffffffffff160361258f576040517f08c379a00000000000000000000000000000000000000000000000000000000081526004016125869061422d565b60405180910390fd5b80600560008573ffffffffffffffffffffffffffffffffffffffff1673ffffffffffffffffffffffffffffffffffffffff16815260200190815260200160002060008473ffffffffffffffffffffffffffffffffffffffff1673ffffffffffffffffffffffffffffffffffffffff16815260200190815260200160002060006101000a81548160ff0219169083151502179055508173ffffffffffffffffffffffffffffffffffffffff168373ffffffffffffffffffffffffffffffffffffffff167f17307eab39ab6107e8899845ad3d59bd9653f200f220920489ca2b5937696c31836040516126809190612d9f565b60405180910390a3505050565b612698848484611d11565b6126a4848484846128c3565b6126e3576040517f08c379a00000000000000000000000000000000000000000000000000000000081526004016126da906142bf565b60405180910390fd5b50505050565b6000600a546103e8836126fc919061430e565b612706919061433f565b9050919050565b6000600b546103e883612720919061430e565b61272a919061433f565b9050919050565b606060405180602001604052806000815250905090565b606061275382611b62565b600061275d612731565b9050600081511161277d57604051806020016040528060008152506127a8565b8061278784612a4a565b604051602001612798929190613adc565b6040516020818303038152906040525b915050919050565b600081600001549050600081116127fc576040517f08c379a00000000000000000000000000000000000000000000000000000000081526004016127f3906143cd565b60405180910390fd5b6001810382600001819055505050565b60007f01ffc9a7000000000000000000000000000000000000000000000000000000007bffffffffffffffffffffffffffffffffffffffffffffffffffffffff1916827bffffffffffffffffffffffffffffffffffffffffffffffffffffffff1916149050919050565b60008073ffffffffffffffffffffffffffffffffffffffff166128988361200a565b73ffffffffffffffffffffffffffffffffffffffff1614159050919050565b50505050565b50505050565b60006128e48473ffffffffffffffffffffffffffffffffffffffff16612b18565b15612a3d578373ffffffffffffffffffffffffffffffffffffffff1663150b7a0261290d611bad565b8786866040518563ffffffff1660e01b815260040161292f9493929190614442565b6020604051808303816000875af192505050801561296b57506040513d601f19601f8201168201806040525081019061296891906144a3565b60015b6129ed573d806000811461299b576040519150601f19603f3d011682016040523d82523d6000602084013e6129a0565b606091505b5060008151036129e5576040517f08c379a00000000000000000000000000000000000000000000000000000000081526004016129dc906142bf565b60405180910390fd5b805181602001fd5b63150b7a0260e01b7bffffffffffffffffffffffffffffffffffffffffffffffffffffffff1916817bffffffffffffffffffffffffffffffffffffffffffffffffffffffff191614915050612a42565b600190505b949350505050565b606060006001612a5984612b3b565b01905060008167ffffffffffffffff811115612a7857612a776131c3565b5b6040519080825280601f01601f191660200182016040528015612aaa5781602001600182028036833780820191505090505b509050600082602001820190505b600115612b0d578080600190039150507f3031323334353637383961626364656600000000000000000000000000000000600a86061a8153600a8581612b0157612b006142df565b5b04945060008503612ab8575b819350505050919050565b6000808273ffffffffffffffffffffffffffffffffffffffff163b119050919050565b600080600090507a184f03e93ff9f4daa797ed6e38ed64bf6a1f0100000000000000008310612b99577a184f03e93ff9f4daa797ed6e38ed64bf6a1f0100000000000000008381612b8f57612b8e6142df565b5b0492506040810190505b6d04ee2d6d415b85acef81000000008310612bd6576d04ee2d6d415b85acef81000000008381612bcc57612bcb6142df565b5b0492506020810190505b662386f26fc100008310612c0557662386f26fc100008381612bfb57612bfa6142df565b5b0492506010810190505b6305f5e1008310612c2e576305f5e1008381612c2457612c236142df565b5b0492506008810190505b6127108310612c53576127108381612c4957612c486142df565b5b0492506004810190505b60648310612c765760648381612c6c57612c6b6142df565b5b0492506002810190505b600a8310612c85576001810190505b80915050919050565b6040518060a0016040528060008152602001600073ffffffffffffffffffffffffffffffffffffffff168152602001600073ffffffffffffffffffffffffffffffffffffffff168152602001600081526020016000151581525090565b6000604051905090565b600080fd5b600080fd5b60007fffffffff0000000000000000000000000000000000000000000000000000000082169050919050565b612d3481612cff565b8114612d3f57600080fd5b50565b600081359050612d5181612d2b565b92915050565b600060208284031215612d6d57612d6c612cf5565b5b6000612d7b84828501612d42565b91505092915050565b60008115159050919050565b612d9981612d84565b82525050565b6000602082019050612db46000830184612d90565b92915050565b600081519050919050565b600082825260208201905092915050565b60005b83811015612df4578082015181840152602081019050612dd9565b60008484015250505050565b6000601f19601f8301169050919050565b6000612e1c82612dba565b612e268185612dc5565b9350612e36818560208601612dd6565b612e3f81612e00565b840191505092915050565b60006020820190508181036000830152612e648184612e11565b905092915050565b6000819050919050565b612e7f81612e6c565b8114612e8a57600080fd5b50565b600081359050612e9c81612e76565b92915050565b600060208284031215612eb857612eb7612cf5565b5b6000612ec684828501612e8d565b91505092915050565b600073ffffffffffffffffffffffffffffffffffffffff82169050919050565b6000612efa82612ecf565b9050919050565b612f0a81612eef565b82525050565b6000602082019050612f256000830184612f01565b92915050565b612f3481612eef565b8114612f3f57600080fd5b50565b600081359050612f5181612f2b565b92915050565b60008060408385031215612f6e57612f6d612cf5565b5b6000612f7c85828601612f42565b9250506020612f8d85828601612e8d565b9150509250929050565b600081519050919050565b600082825260208201905092915050565b6000819050602082019050919050565b612fcc81612e6c565b82525050565b6000612fdd82612ecf565b9050919050565b612fed81612fd2565b82525050565b612ffc81612d84565b82525050565b60a0820160008201516130186000850182612fc3565b50602082015161302b6020850182612fe4565b50604082015161303e6040850182612fe4565b5060608201516130516060850182612fc3565b5060808201516130646080850182612ff3565b50505050565b60006130768383613002565b60a08301905092915050565b6000602082019050919050565b600061309a82612f97565b6130a48185612fa2565b93506130af83612fb3565b8060005b838110156130e05781516130c7888261306a565b97506130d283613082565b9250506001810190506130b3565b5085935050505092915050565b60006020820190508181036000830152613107818461308f565b905092915050565b61311881612e6c565b82525050565b6000602082019050613133600083018461310f565b92915050565b60008060006060848603121561315257613151612cf5565b5b600061316086828701612f42565b935050602061317186828701612f42565b925050604061318286828701612e8d565b9150509250925092565b6000602082840312156131a2576131a1612cf5565b5b60006131b084828501612f42565b91505092915050565b600080fd5b600080fd5b7f4e487b7100000000000000000000000000000000000000000000000000000000600052604160045260246000fd5b6131fb82612e00565b810181811067ffffffffffffffff8211171561321a576132196131c3565b5b80604052505050565b600061322d612ceb565b905061323982826131f2565b919050565b600067ffffffffffffffff821115613259576132586131c3565b5b61326282612e00565b9050602081019050919050565b82818337600083830152505050565b600061329161328c8461323e565b613223565b9050828152602081018484840111156132ad576132ac6131be565b5b6132b884828561326f565b509392505050565b600082601f8301126132d5576132d46131b9565b5b81356132e584826020860161327e565b91505092915050565b6000806040838503121561330557613304612cf5565b5b600083013567ffffffffffffffff81111561332357613322612cfa565b5b61332f858286016132c0565b925050602061334085828601612e8d565b9150509250929050565b61335381612d84565b811461335e57600080fd5b50565b6000813590506133708161334a565b92915050565b6000806040838503121561338d5761338c612cf5565b5b600061339b85828601612f42565b92505060206133ac85828601613361565b9150509250929050565b600067ffffffffffffffff8211156133d1576133d06131c3565b5b6133da82612e00565b9050602081019050919050565b60006133fa6133f5846133b6565b613223565b905082815260208101848484011115613416576134156131be565b5b61342184828561326f565b509392505050565b600082601f83011261343e5761343d6131b9565b5b813561344e8482602086016133e7565b91505092915050565b6000806000806080858703121561347157613470612cf5565b5b600061347f87828801612f42565b945050602061349087828801612f42565b93505060406134a187828801612e8d565b925050606085013567ffffffffffffffff8111156134c2576134c1612cfa565b5b6134ce87828801613429565b91505092959194509250565b600080604083850312156134f1576134f0612cf5565b5b60006134ff85828601612e8d565b925050602061351085828601612e8d565b9150509250929050565b6000806040838503121561353157613530612cf5565b5b600061353f85828601612f42565b925050602061355085828601612f42565b9150509250929050565b7f4e487b7100000000000000000000000000000000000000000000000000000000600052602260045260246000fd5b600060028204905060018216806135a157607f821691505b6020821081036135b4576135b361355a565b5b50919050565b7f4552433732313a20617070726f76616c20746f2063757272656e74206f776e6560008201527f7200000000000000000000000000000000000000000000000000000000000000602082015250565b6000613616602183612dc5565b9150613621826135ba565b604082019050919050565b6000602082019050818103600083015261364581613609565b9050919050565b7f4552433732313a20617070726f76652063616c6c6572206973206e6f7420746f60008201527f6b656e206f776e6572206f7220617070726f76656420666f7220616c6c000000602082015250565b60006136a8603d83612dc5565b91506136b38261364c565b604082019050919050565b600060208201905081810360008301526136d78161369b565b9050919050565b7f4e487b7100000000000000000000000000000000000000000000000000000000600052601160045260246000fd5b600061371882612e6c565b915061372383612e6c565b925082820390508181111561373b5761373a6136de565b5b92915050565b600061374c82612e6c565b915061375783612e6c565b925082820190508082111561376f5761376e6136de565b5b92915050565b7f4e487b7100000000000000000000000000000000000000000000000000000000600052603260045260246000fd5b60006137af82612e6c565b91507fffffffffffffffffffffffffffffffffffffffffffffffffffffffffffffffff82036137e1576137e06136de565b5b600182019050919050565b7f4552433732313a2063616c6c6572206973206e6f7420746f6b656e206f776e6560008201527f72206f7220617070726f76656400000000000000000000000000000000000000602082015250565b6000613848602d83612dc5565b9150613853826137ec565b604082019050919050565b600060208201905081810360008301526138778161383b565b9050919050565b7f4f6e6c79206d61726b6574706c616365206f776e65722063616e20757064617460008201527f6520746865206c697374696e6720707269636500000000000000000000000000602082015250565b60006138da603383612dc5565b91506138e58261387e565b604082019050919050565b60006020820190508181036000830152613909816138cd565b9050919050565b7f4552433732313a20696e76616c696420746f6b656e2049440000000000000000600082015250565b6000613946601883612dc5565b915061395182613910565b602082019050919050565b6000602082019050818103600083015261397581613939565b9050919050565b7f4552433732313a2061646472657373207a65726f206973206e6f74206120766160008201527f6c6964206f776e65720000000000000000000000000000000000000000000000602082015250565b60006139d8602983612dc5565b91506139e38261397c565b604082019050919050565b60006020820190508181036000830152613a07816139cb565b9050919050565b7f506c65617365207375626d6974207468652061736b696e67207072696365207460008201527f6f20636f6d706c65746520746865207075726368617365000000000000000000602082015250565b6000613a6a603783612dc5565b9150613a7582613a0e565b604082019050919050565b60006020820190508181036000830152613a9981613a5d565b9050919050565b600081905092915050565b6000613ab682612dba565b613ac08185613aa0565b9350613ad0818560208601612dd6565b80840191505092915050565b6000613ae88285613aab565b9150613af48284613aab565b91508190509392505050565b7f4f6e6c79204974656d204f776e65722063616e20706572666f726d207468697360008201527f206f7065726174696f6e00000000000000000000000000000000000000000000602082015250565b6000613b5c602a83612dc5565b9150613b6782613b00565b604082019050919050565b60006020820190508181036000830152613b8b81613b4f565b9050919050565b7f5072696365206d75737420626520657175616c20746f206c697374696e67207060008201527f7269636500000000000000000000000000000000000000000000000000000000602082015250565b6000613bee602483612dc5565b9150613bf982613b92565b604082019050919050565b60006020820190508181036000830152613c1d81613be1565b9050919050565b7f4552433732313a207472616e736665722066726f6d20696e636f72726563742060008201527f6f776e6572000000000000000000000000000000000000000000000000000000602082015250565b6000613c80602583612dc5565b9150613c8b82613c24565b604082019050919050565b60006020820190508181036000830152613caf81613c73565b9050919050565b7f4552433732313a207472616e7366657220746f20746865207a65726f2061646460008201527f7265737300000000000000000000000000000000000000000000000000000000602082015250565b6000613d12602483612dc5565b9150613d1d82613cb6565b604082019050919050565b60006020820190508181036000830152613d4181613d05565b9050919050565b7f4552433732313a206d696e7420746f20746865207a65726f2061646472657373600082015250565b6000613d7e602083612dc5565b9150613d8982613d48565b602082019050919050565b60006020820190508181036000830152613dad81613d71565b9050919050565b7f4552433732313a20746f6b656e20616c7265616479206d696e74656400000000600082015250565b6000613dea601c83612dc5565b9150613df582613db4565b602082019050919050565b60006020820190508181036000830152613e1981613ddd565b9050919050565b7f45524337323155524953746f726167653a2055524920736574206f66206e6f6e60008201527f6578697374656e7420746f6b656e000000000000000000000000000000000000602082015250565b6000613e7c602e83612dc5565b9150613e8782613e20565b604082019050919050565b60006020820190508181036000830152613eab81613e6f565b9050919050565b60008190508160005260206000209050919050565b60006020601f8301049050919050565b600082821b905092915050565b600060088302613f147fffffffffffffffffffffffffffffffffffffffffffffffffffffffffffffffff82613ed7565b613f1e8683613ed7565b95508019841693508086168417925050509392505050565b6000819050919050565b6000613f5b613f56613f5184612e6c565b613f36565b612e6c565b9050919050565b6000819050919050565b613f7583613f40565b613f89613f8182613f62565b848454613ee4565b825550505050565b600090565b613f9e613f91565b613fa9818484613f6c565b505050565b5b81811015613fcd57613fc2600082613f96565b600181019050613faf565b5050565b601f82111561401257613fe381613eb2565b613fec84613ec7565b81016020851015613ffb578190505b61400f61400785613ec7565b830182613fae565b50505b505050565b600082821c905092915050565b600061403560001984600802614017565b1980831691505092915050565b600061404e8383614024565b9150826002028217905092915050565b61406782612dba565b67ffffffffffffffff8111156140805761407f6131c3565b5b61408a8254613589565b614095828285613fd1565b600060209050601f8311600181146140c857600084156140b6578287015190505b6140c08582614042565b865550614128565b601f1984166140d686613eb2565b60005b828110156140fe578489015182556001820191506020850194506020810190506140d9565b8683101561411b5784890151614117601f891682614024565b8355505b6001600288020188555050505b505050505050565b7f5072696365206d757374206265206174206c6561737420310000000000000000600082015250565b6000614166601883612dc5565b915061417182614130565b602082019050919050565b6000602082019050818103600083015261419581614159565b9050919050565b60006080820190506141b16000830187612f01565b6141be6020830186612f01565b6141cb604083018561310f565b6141d86060830184612d90565b95945050505050565b7f4552433732313a20617070726f766520746f2063616c6c657200000000000000600082015250565b6000614217601983612dc5565b9150614222826141e1565b602082019050919050565b600060208201905081810360008301526142468161420a565b9050919050565b7f4552433732313a207472616e7366657220746f206e6f6e20455243373231526560008201527f63656976657220696d706c656d656e7465720000000000000000000000000000602082015250565b60006142a9603283612dc5565b91506142b48261424d565b604082019050919050565b600060208201905081810360008301526142d88161429c565b9050919050565b7f4e487b7100000000000000000000000000000000000000000000000000000000600052601260045260246000fd5b600061431982612e6c565b915061432483612e6c565b925082614334576143336142df565b5b828204905092915050565b600061434a82612e6c565b915061435583612e6c565b925082820261436381612e6c565b9150828204841483151761437a576143796136de565b5b5092915050565b7f436f756e7465723a2064656372656d656e74206f766572666c6f770000000000600082015250565b60006143b7601b83612dc5565b91506143c282614381565b602082019050919050565b600060208201905081810360008301526143e6816143aa565b9050919050565b600081519050919050565b600082825260208201905092915050565b6000614414826143ed565b61441e81856143f8565b935061442e818560208601612dd6565b61443781612e00565b840191505092915050565b60006080820190506144576000830187612f01565b6144646020830186612f01565b614471604083018561310f565b81810360608301526144838184614409565b905095945050505050565b60008151905061449d81612d2b565b92915050565b6000602082840312156144b9576144b8612cf5565b5b60006144c78482850161448e565b9150509291505056fea26469706673582212208549f86ec682b837d476cc783f11234a5b7d0ecd942c29c5dca504ceca7e4d4464736f6c63430008130033",
  "linkReferences": {},
  "deployedLinkReferences": {}
}