{
  "_format": "hh-sol-artifact-1",
  "contractName": "NFTMarketplace",
  "sourceName": "contracts/NFTMarketplace.sol",
  "abi": [
    {
      "inputs": [],
      "stateMutability": "nonpayable",
      "type": "constructor"
    },
    {
      "anonymous": false,
      "inputs": [
        {
          "indexed": true,
          "internalType": "address",
          "name": "owner",
          "type": "address"
        },
        {
          "indexed": true,
          "internalType": "address",
          "name": "approved",
          "type": "address"
        },
        {
          "indexed": true,
          "internalType": "uint256",
          "name": "tokenId",
          "type": "uint256"
        }
      ],
      "name": "Approval",
      "type": "event"
    },
    {
      "anonymous": false,
      "inputs": [
        {
          "indexed": true,
          "internalType": "address",
          "name": "owner",
          "type": "address"
        },
        {
          "indexed": true,
          "internalType": "address",
          "name": "operator",
          "type": "address"
        },
        {
          "indexed": false,
          "internalType": "bool",
          "name": "approved",
          "type": "bool"
        }
      ],
      "name": "ApprovalForAll",
      "type": "event"
    },
    {
      "anonymous": false,
      "inputs": [
        {
          "indexed": false,
          "internalType": "uint256",
          "name": "_fromTokenId",
          "type": "uint256"
        },
        {
          "indexed": false,
          "internalType": "uint256",
          "name": "_toTokenId",
          "type": "uint256"
        }
      ],
      "name": "BatchMetadataUpdate",
      "type": "event"
    },
    {
      "anonymous": false,
      "inputs": [
        {
          "indexed": true,
          "internalType": "uint256",
          "name": "tokenId",
          "type": "uint256"
        },
        {
          "indexed": false,
          "internalType": "address",
          "name": "seller",
          "type": "address"
        },
        {
          "indexed": false,
          "internalType": "address",
          "name": "owner",
          "type": "address"
        },
        {
          "indexed": false,
          "internalType": "uint256",
          "name": "price",
          "type": "uint256"
        },
        {
          "indexed": false,
          "internalType": "bool",
          "name": "sold",
          "type": "bool"
        }
      ],
      "name": "MarketItemCreated",
      "type": "event"
    },
    {
      "anonymous": false,
      "inputs": [
        {
          "indexed": false,
          "internalType": "uint256",
          "name": "_tokenId",
          "type": "uint256"
        }
      ],
      "name": "MetadataUpdate",
      "type": "event"
    },
    {
      "anonymous": false,
      "inputs": [
        {
          "indexed": true,
          "internalType": "address",
          "name": "from",
          "type": "address"
        },
        {
          "indexed": true,
          "internalType": "address",
          "name": "to",
          "type": "address"
        },
        {
          "indexed": true,
          "internalType": "uint256",
          "name": "tokenId",
          "type": "uint256"
        }
      ],
      "name": "Transfer",
      "type": "event"
    },
    {
      "inputs": [
        {
          "internalType": "address",
          "name": "to",
          "type": "address"
        },
        {
          "internalType": "uint256",
          "name": "tokenId",
          "type": "uint256"
        }
      ],
      "name": "approve",
      "outputs": [],
      "stateMutability": "nonpayable",
      "type": "function"
    },
    {
      "inputs": [
        {
          "internalType": "address",
          "name": "owner",
          "type": "address"
        }
      ],
      "name": "balanceOf",
      "outputs": [
        {
          "internalType": "uint256",
          "name": "",
          "type": "uint256"
        }
      ],
      "stateMutability": "view",
      "type": "function"
    },
    {
      "inputs": [
        {
          "internalType": "uint256",
          "name": "tokenId",
          "type": "uint256"
        }
      ],
      "name": "createMarketSale",
      "outputs": [],
      "stateMutability": "payable",
      "type": "function"
    },
    {
      "inputs": [
        {
          "internalType": "string",
          "name": "tokenURI",
          "type": "string"
        },
        {
          "internalType": "uint256",
          "name": "price",
          "type": "uint256"
        }
      ],
      "name": "createToken",
      "outputs": [
        {
          "internalType": "uint256",
          "name": "",
          "type": "uint256"
        }
      ],
      "stateMutability": "payable",
      "type": "function"
    },
    {
      "inputs": [],
      "name": "fetchItemsListed",
      "outputs": [
        {
          "components": [
            {
              "internalType": "uint256",
              "name": "tokenId",
              "type": "uint256"
            },
            {
              "internalType": "address payable",
              "name": "seller",
              "type": "address"
            },
            {
              "internalType": "address payable",
              "name": "owner",
              "type": "address"
            },
            {
              "internalType": "uint256",
              "name": "price",
              "type": "uint256"
            },
            {
              "internalType": "bool",
              "name": "sold",
              "type": "bool"
            }
          ],
          "internalType": "struct NFTMarketplace.MarketItem[]",
          "name": "",
          "type": "tuple[]"
        }
      ],
      "stateMutability": "view",
      "type": "function"
    },
    {
      "inputs": [],
      "name": "fetchMarketItems",
      "outputs": [
        {
          "components": [
            {
              "internalType": "uint256",
              "name": "tokenId",
              "type": "uint256"
            },
            {
              "internalType": "address payable",
              "name": "seller",
              "type": "address"
            },
            {
              "internalType": "address payable",
              "name": "owner",
              "type": "address"
            },
            {
              "internalType": "uint256",
              "name": "price",
              "type": "uint256"
            },
            {
              "internalType": "bool",
              "name": "sold",
              "type": "bool"
            }
          ],
          "internalType": "struct NFTMarketplace.MarketItem[]",
          "name": "",
          "type": "tuple[]"
        }
      ],
      "stateMutability": "view",
      "type": "function"
    },
    {
      "inputs": [],
      "name": "fetchMyItems",
      "outputs": [
        {
          "components": [
            {
              "internalType": "uint256",
              "name": "tokenId",
              "type": "uint256"
            },
            {
              "internalType": "address payable",
              "name": "seller",
              "type": "address"
            },
            {
              "internalType": "address payable",
              "name": "owner",
              "type": "address"
            },
            {
              "internalType": "uint256",
              "name": "price",
              "type": "uint256"
            },
            {
              "internalType": "bool",
              "name": "sold",
              "type": "bool"
            }
          ],
          "internalType": "struct NFTMarketplace.MarketItem[]",
          "name": "",
          "type": "tuple[]"
        }
      ],
      "stateMutability": "view",
      "type": "function"
    },
    {
      "inputs": [
        {
          "internalType": "uint256",
          "name": "tokenId",
          "type": "uint256"
        }
      ],
      "name": "getApproved",
      "outputs": [
        {
          "internalType": "address",
          "name": "",
          "type": "address"
        }
      ],
      "stateMutability": "view",
      "type": "function"
    },
    {
      "inputs": [],
      "name": "getListingPrice",
      "outputs": [
        {
          "internalType": "uint256",
          "name": "",
          "type": "uint256"
        }
      ],
      "stateMutability": "view",
      "type": "function"
    },
    {
      "inputs": [],
      "name": "getOwnerCommissionPercentage",
      "outputs": [
        {
          "internalType": "uint256",
          "name": "",
          "type": "uint256"
        }
      ],
      "stateMutability": "view",
      "type": "function"
    },
    {
      "inputs": [
        {
          "internalType": "address",
          "name": "owner",
          "type": "address"
        },
        {
          "internalType": "address",
          "name": "operator",
          "type": "address"
        }
      ],
      "name": "isApprovedForAll",
      "outputs": [
        {
          "internalType": "bool",
          "name": "",
          "type": "bool"
        }
      ],
      "stateMutability": "view",
      "type": "function"
    },
    {
      "inputs": [],
      "name": "name",
      "outputs": [
        {
          "internalType": "string",
          "name": "",
          "type": "string"
        }
      ],
      "stateMutability": "view",
      "type": "function"
    },
    {
      "inputs": [
        {
          "internalType": "uint256",
          "name": "tokenId",
          "type": "uint256"
        }
      ],
      "name": "ownerOf",
      "outputs": [
        {
          "internalType": "address",
          "name": "",
          "type": "address"
        }
      ],
      "stateMutability": "view",
      "type": "function"
    },
    {
      "inputs": [
        {
          "internalType": "uint256",
          "name": "tokenId",
          "type": "uint256"
        },
        {
          "internalType": "uint256",
          "name": "price",
          "type": "uint256"
        }
      ],
      "name": "resellToken",
      "outputs": [],
      "stateMutability": "payable",
      "type": "function"
    },
    {
      "inputs": [
        {
          "internalType": "address",
          "name": "from",
          "type": "address"
        },
        {
          "internalType": "address",
          "name": "to",
          "type": "address"
        },
        {
          "internalType": "uint256",
          "name": "tokenId",
          "type": "uint256"
        }
      ],
      "name": "safeTransferFrom",
      "outputs": [],
      "stateMutability": "nonpayable",
      "type": "function"
    },
    {
      "inputs": [
        {
          "internalType": "address",
          "name": "from",
          "type": "address"
        },
        {
          "internalType": "address",
          "name": "to",
          "type": "address"
        },
        {
          "internalType": "uint256",
          "name": "tokenId",
          "type": "uint256"
        },
        {
          "internalType": "bytes",
          "name": "data",
          "type": "bytes"
        }
      ],
      "name": "safeTransferFrom",
      "outputs": [],
      "stateMutability": "nonpayable",
      "type": "function"
    },
    {
      "inputs": [
        {
          "internalType": "address",
          "name": "operator",
          "type": "address"
        },
        {
          "internalType": "bool",
          "name": "approved",
          "type": "bool"
        }
      ],
      "name": "setApprovalForAll",
      "outputs": [],
      "stateMutability": "nonpayable",
      "type": "function"
    },
    {
      "inputs": [
        {
          "internalType": "bytes4",
          "name": "interfaceId",
          "type": "bytes4"
        }
      ],
      "name": "supportsInterface",
      "outputs": [
        {
          "internalType": "bool",
          "name": "",
          "type": "bool"
        }
      ],
      "stateMutability": "view",
      "type": "function"
    },
    {
      "inputs": [],
      "name": "symbol",
      "outputs": [
        {
          "internalType": "string",
          "name": "",
          "type": "string"
        }
      ],
      "stateMutability": "view",
      "type": "function"
    },
    {
      "inputs": [
        {
          "internalType": "uint256",
          "name": "tokenId",
          "type": "uint256"
        }
      ],
      "name": "tokenURI",
      "outputs": [
        {
          "internalType": "string",
          "name": "",
          "type": "string"
        }
      ],
      "stateMutability": "view",
      "type": "function"
    },
    {
      "inputs": [
        {
          "internalType": "address",
          "name": "from",
          "type": "address"
        },
        {
          "internalType": "address",
          "name": "to",
          "type": "address"
        },
        {
          "internalType": "uint256",
          "name": "tokenId",
          "type": "uint256"
        }
      ],
      "name": "transferFrom",
      "outputs": [],
      "stateMutability": "nonpayable",
      "type": "function"
    },
    {
      "inputs": [
        {
          "internalType": "uint256",
          "name": "_listingPrice",
          "type": "uint256"
        }
      ],
      "name": "updateListingPrice",
      "outputs": [],
      "stateMutability": "payable",
      "type": "function"
    },
    {
      "inputs": [
        {
          "internalType": "uint256",
          "name": "_ownerCommissionPercentage",
          "type": "uint256"
        }
      ],
      "name": "updateOwnerCommissionPercentage",
      "outputs": [],
      "stateMutability": "payable",
      "type": "function"
    }
  ],
  "bytecode": "0x60806040526801158e460913d00000600955600f600a55600a546103e8620000289190620001d0565b600b553480156200003857600080fd5b506040518060400160405280600781526020017f41727462797465000000000000000000000000000000000000000000000000008152506040518060400160405280600381526020017f41525400000000000000000000000000000000000000000000000000000000008152508160009080519060200190620000bd92919062000120565b508060019080519060200190620000d692919062000120565b50505033600c60006101000a81548173ffffffffffffffffffffffffffffffffffffffff021916908373ffffffffffffffffffffffffffffffffffffffff160217905550620002a9565b8280546200012e9062000215565b90600052602060002090601f0160209004810192826200015257600085556200019e565b82601f106200016d57805160ff19168380011785556200019e565b828001600101855582156200019e579182015b828111156200019d57825182559160200191906001019062000180565b5b509050620001ad9190620001b1565b5090565b5b80821115620001cc576000816000905550600101620001b2565b5090565b6000620001dd826200020b565b9150620001ea836200020b565b9250828210156200020057620001ff6200024b565b5b828203905092915050565b6000819050919050565b600060028204905060018216806200022e57607f821691505b602082108114156200024557620002446200027a565b5b50919050565b7f4e487b7100000000000000000000000000000000000000000000000000000000600052601160045260246000fd5b7f4e487b7100000000000000000000000000000000000000000000000000000000600052602260045260246000fd5b61452a80620002b96000396000f3fe6080604052600436106101405760003560e01c80636352211e116100b6578063b88d4fde1161006f578063b88d4fde14610447578063be9af53614610470578063c87b56dd1461048c578063e219fc75146104c9578063e985e9c5146104e5578063f060a4471461052257610140565b80636352211e1461032d57806370a082311461036a57806372b3b620146103a757806395d89b41146103d7578063a22cb46514610402578063ae677aa31461042b57610140565b806312e855851161010857806312e855851461023e57806315c9ae101461026957806323b872dd146102945780633ff7abca146102bd57806342842e0e146102d957806345f8fa801461030257610140565b806301ffc9a71461014557806306fdde0314610182578063081812fc146101ad578063095ea7b3146101ea5780630f08efe014610213575b600080fd5b34801561015157600080fd5b5061016c600480360381019061016791906132af565b61054d565b60405161017991906138fd565b60405180910390f35b34801561018e57600080fd5b506101976105ae565b6040516101a49190613918565b60405180910390f35b3480156101b957600080fd5b506101d460048036038101906101cf9190613355565b610640565b6040516101e1919061382f565b60405180910390f35b3480156101f657600080fd5b50610211600480360381019061020c9190613273565b610686565b005b34801561021f57600080fd5b5061022861079e565b60405161023591906138db565b60405180910390f35b34801561024a57600080fd5b50610253610a53565b6040516102609190613b7a565b60405180910390f35b34801561027557600080fd5b5061027e610a5d565b60405161028b91906138db565b60405180910390f35b3480156102a057600080fd5b506102bb60048036038101906102b6919061316d565b610d97565b005b6102d760048036038101906102d29190613355565b610df7565b005b3480156102e557600080fd5b5061030060048036038101906102fb919061316d565b610e91565b005b34801561030e57600080fd5b50610317610eb1565b60405161032491906138db565b60405180910390f35b34801561033957600080fd5b50610354600480360381019061034f9190613355565b6111eb565b604051610361919061382f565b60405180910390f35b34801561037657600080fd5b50610391600480360381019061038c9190613108565b611272565b60405161039e9190613b7a565b60405180910390f35b6103c160048036038101906103bc9190613301565b61132a565b6040516103ce9190613b7a565b60405180910390f35b3480156103e357600080fd5b506103ec61136c565b6040516103f99190613918565b60405180910390f35b34801561040e57600080fd5b5061042960048036038101906104249190613237565b6113fe565b005b61044560048036038101906104409190613355565b611414565b005b34801561045357600080fd5b5061046e600480360381019061046991906131bc565b6114ae565b005b61048a60048036038101906104859190613355565b611510565b005b34801561049857600080fd5b506104b360048036038101906104ae9190613355565b6117c7565b6040516104c09190613918565b60405180910390f35b6104e360048036038101906104de919061337e565b6118da565b005b3480156104f157600080fd5b5061050c60048036038101906105079190613131565b611acf565b60405161051991906138fd565b60405180910390f35b34801561052e57600080fd5b50610537611b63565b6040516105449190613b7a565b60405180910390f35b6000634906490660e01b7bffffffffffffffffffffffffffffffffffffffffffffffffffffffff1916827bffffffffffffffffffffffffffffffffffffffffffffffffffffffff191614806105a757506105a682611b6d565b5b9050919050565b6060600080546105bd90613e75565b80601f01602080910402602001604051908101604052809291908181526020018280546105e990613e75565b80156106365780601f1061060b57610100808354040283529160200191610636565b820191906000526020600020905b81548152906001019060200180831161061957829003601f168201915b5050505050905090565b600061064b82611c4f565b6004600083815260200190815260200160002060009054906101000a900473ffffffffffffffffffffffffffffffffffffffff169050919050565b6000610691826111eb565b90508073ffffffffffffffffffffffffffffffffffffffff168373ffffffffffffffffffffffffffffffffffffffff161415610702576040517f08c379a00000000000000000000000000000000000000000000000000000000081526004016106f990613ada565b60405180910390fd5b8073ffffffffffffffffffffffffffffffffffffffff16610721611c9a565b73ffffffffffffffffffffffffffffffffffffffff161480610750575061074f8161074a611c9a565b611acf565b5b61078f576040517f08c379a000000000000000000000000000000000000000000000000000000000815260040161078690613b1a565b60405180910390fd5b6107998383611ca2565b505050565b606060006107ac6007611d5b565b905060006107ba6008611d5b565b6107c46007611d5b565b6107ce9190613d79565b90506000808267ffffffffffffffff811115610813577f4e487b7100000000000000000000000000000000000000000000000000000000600052604160045260246000fd5b60405190808252806020026020018201604052801561084c57816020015b610839612ecf565b8152602001906001900390816108315790505b50905060005b84811015610a48573073ffffffffffffffffffffffffffffffffffffffff16600d60006001846108829190613c98565b815260200190815260200160002060020160009054906101000a900473ffffffffffffffffffffffffffffffffffffffff1673ffffffffffffffffffffffffffffffffffffffff161415610a355760006001826108df9190613c98565b90506000600d60008381526020019081526020016000209050806040518060a0016040529081600082015481526020016001820160009054906101000a900473ffffffffffffffffffffffffffffffffffffffff1673ffffffffffffffffffffffffffffffffffffffff1673ffffffffffffffffffffffffffffffffffffffff1681526020016002820160009054906101000a900473ffffffffffffffffffffffffffffffffffffffff1673ffffffffffffffffffffffffffffffffffffffff1673ffffffffffffffffffffffffffffffffffffffff168152602001600382015481526020016004820160009054906101000a900460ff161515151581525050848681518110610a18577f4e487b7100000000000000000000000000000000000000000000000000000000600052603260045260246000fd5b6020026020010181905250600185610a309190613c98565b945050505b8080610a4090613ed8565b915050610852565b508094505050505090565b6000600954905090565b60606000610a6b6007611d5b565b905060008060005b83811015610b14573373ffffffffffffffffffffffffffffffffffffffff16600d6000600184610aa39190613c98565b815260200190815260200160002060020160009054906101000a900473ffffffffffffffffffffffffffffffffffffffff1673ffffffffffffffffffffffffffffffffffffffff161415610b0157600183610afe9190613c98565b92505b8080610b0c90613ed8565b915050610a73565b5060008267ffffffffffffffff811115610b57577f4e487b7100000000000000000000000000000000000000000000000000000000600052604160045260246000fd5b604051908082528060200260200182016040528015610b9057816020015b610b7d612ecf565b815260200190600190039081610b755790505b50905060005b84811015610d8c573373ffffffffffffffffffffffffffffffffffffffff16600d6000600184610bc69190613c98565b815260200190815260200160002060020160009054906101000a900473ffffffffffffffffffffffffffffffffffffffff1673ffffffffffffffffffffffffffffffffffffffff161415610d79576000600182610c239190613c98565b90506000600d60008381526020019081526020016000209050806040518060a0016040529081600082015481526020016001820160009054906101000a900473ffffffffffffffffffffffffffffffffffffffff1673ffffffffffffffffffffffffffffffffffffffff1673ffffffffffffffffffffffffffffffffffffffff1681526020016002820160009054906101000a900473ffffffffffffffffffffffffffffffffffffffff1673ffffffffffffffffffffffffffffffffffffffff1673ffffffffffffffffffffffffffffffffffffffff168152602001600382015481526020016004820160009054906101000a900460ff161515151581525050848681518110610d5c577f4e487b7100000000000000000000000000000000000000000000000000000000600052603260045260246000fd5b6020026020010181905250600185610d749190613c98565b945050505b8080610d8490613ed8565b915050610b96565b508094505050505090565b610da8610da2611c9a565b82611d69565b610de7576040517f08c379a0000000000000000000000000000000000000000000000000000000008152600401610dde9061393a565b60405180910390fd5b610df2838383611dfe565b505050565b3373ffffffffffffffffffffffffffffffffffffffff16600c60009054906101000a900473ffffffffffffffffffffffffffffffffffffffff1673ffffffffffffffffffffffffffffffffffffffff1614610e87576040517f08c379a0000000000000000000000000000000000000000000000000000000008152600401610e7e906139da565b60405180910390fd5b80600a8190555050565b610eac838383604051806020016040528060008152506114ae565b505050565b60606000610ebf6007611d5b565b905060008060005b83811015610f68573373ffffffffffffffffffffffffffffffffffffffff16600d6000600184610ef79190613c98565b815260200190815260200160002060010160009054906101000a900473ffffffffffffffffffffffffffffffffffffffff1673ffffffffffffffffffffffffffffffffffffffff161415610f5557600183610f529190613c98565b92505b8080610f6090613ed8565b915050610ec7565b5060008267ffffffffffffffff811115610fab577f4e487b7100000000000000000000000000000000000000000000000000000000600052604160045260246000fd5b604051908082528060200260200182016040528015610fe457816020015b610fd1612ecf565b815260200190600190039081610fc95790505b50905060005b848110156111e0573373ffffffffffffffffffffffffffffffffffffffff16600d600060018461101a9190613c98565b815260200190815260200160002060010160009054906101000a900473ffffffffffffffffffffffffffffffffffffffff1673ffffffffffffffffffffffffffffffffffffffff1614156111cd5760006001826110779190613c98565b90506000600d60008381526020019081526020016000209050806040518060a0016040529081600082015481526020016001820160009054906101000a900473ffffffffffffffffffffffffffffffffffffffff1673ffffffffffffffffffffffffffffffffffffffff1673ffffffffffffffffffffffffffffffffffffffff1681526020016002820160009054906101000a900473ffffffffffffffffffffffffffffffffffffffff1673ffffffffffffffffffffffffffffffffffffffff1673ffffffffffffffffffffffffffffffffffffffff168152602001600382015481526020016004820160009054906101000a900460ff1615151515815250508486815181106111b0577f4e487b7100000000000000000000000000000000000000000000000000000000600052603260045260246000fd5b60200260200101819052506001856111c89190613c98565b945050505b80806111d890613ed8565b915050610fea565b508094505050505090565b6000806111f7836120f8565b9050600073ffffffffffffffffffffffffffffffffffffffff168173ffffffffffffffffffffffffffffffffffffffff161415611269576040517f08c379a000000000000000000000000000000000000000000000000000000000815260040161126090613aba565b60405180910390fd5b80915050919050565b60008073ffffffffffffffffffffffffffffffffffffffff168273ffffffffffffffffffffffffffffffffffffffff1614156112e3576040517f08c379a00000000000000000000000000000000000000000000000000000000081526004016112da90613a3a565b60405180910390fd5b600360008373ffffffffffffffffffffffffffffffffffffffff1673ffffffffffffffffffffffffffffffffffffffff168152602001908152602001600020549050919050565b60006113366007612135565b60006113426007611d5b565b905061134e338261214b565b6113588185612369565b6113628184612414565b8091505092915050565b60606001805461137b90613e75565b80601f01602080910402602001604051908101604052809291908181526020018280546113a790613e75565b80156113f45780601f106113c9576101008083540402835291602001916113f4565b820191906000526020600020905b8154815290600101906020018083116113d757829003601f168201915b5050505050905090565b611410611409611c9a565b8383612617565b5050565b3373ffffffffffffffffffffffffffffffffffffffff16600c60009054906101000a900473ffffffffffffffffffffffffffffffffffffffff1673ffffffffffffffffffffffffffffffffffffffff16146114a4576040517f08c379a000000000000000000000000000000000000000000000000000000000815260040161149b906139da565b60405180910390fd5b8060098190555050565b6114bf6114b9611c9a565b83611d69565b6114fe576040517f08c379a00000000000000000000000000000000000000000000000000000000081526004016114f59061393a565b60405180910390fd5b61150a84848484612784565b50505050565b6000600d60008381526020019081526020016000206003015490506000600d600084815260200190815260200160002060010160009054906101000a900473ffffffffffffffffffffffffffffffffffffffff1690508134146115a8576040517f08c379a000000000000000000000000000000000000000000000000000000000815260040161159f90613b5a565b60405180910390fd5b33600d600085815260200190815260200160002060020160006101000a81548173ffffffffffffffffffffffffffffffffffffffff021916908373ffffffffffffffffffffffffffffffffffffffff1602179055506001600d600085815260200190815260200160002060040160006101000a81548160ff0219169083151502179055506000600d600085815260200190815260200160002060010160006101000a81548173ffffffffffffffffffffffffffffffffffffffff021916908373ffffffffffffffffffffffffffffffffffffffff16021790555061168c6008612135565b611697303385611dfe565b600c60009054906101000a900473ffffffffffffffffffffffffffffffffffffffff1673ffffffffffffffffffffffffffffffffffffffff166108fc6009549081150290604051600060405180830381858888f19350505050158015611701573d6000803e3d6000fd5b50600c60009054906101000a900473ffffffffffffffffffffffffffffffffffffffff1673ffffffffffffffffffffffffffffffffffffffff166108fc611747346127e0565b9081150290604051600060405180830381858888f19350505050158015611772573d6000803e3d6000fd5b508073ffffffffffffffffffffffffffffffffffffffff166108fc61179634612804565b9081150290604051600060405180830381858888f193505050501580156117c1573d6000803e3d6000fd5b50505050565b60606117d282611c4f565b60006006600084815260200190815260200160002080546117f290613e75565b80601f016020809104026020016040519081016040528092919081815260200182805461181e90613e75565b801561186b5780601f106118405761010080835404028352916020019161186b565b820191906000526020600020905b81548152906001019060200180831161184e57829003601f168201915b50505050509050600061187c612828565b90506000815114156118925781925050506118d5565b6000825111156118c75780826040516020016118af92919061380b565b604051602081830303815290604052925050506118d5565b6118d08461283f565b925050505b919050565b3373ffffffffffffffffffffffffffffffffffffffff16600d600084815260200190815260200160002060020160009054906101000a900473ffffffffffffffffffffffffffffffffffffffff1673ffffffffffffffffffffffffffffffffffffffff161461197e576040517f08c379a000000000000000000000000000000000000000000000000000000000815260040161197590613b3a565b60405180910390fd5b60095434146119c2576040517f08c379a00000000000000000000000000000000000000000000000000000000081526004016119b990613afa565b60405180910390fd5b6000600d600084815260200190815260200160002060040160006101000a81548160ff02191690831515021790555080600d60008481526020019081526020016000206003018190555033600d600084815260200190815260200160002060010160006101000a81548173ffffffffffffffffffffffffffffffffffffffff021916908373ffffffffffffffffffffffffffffffffffffffff16021790555030600d600084815260200190815260200160002060020160006101000a81548173ffffffffffffffffffffffffffffffffffffffff021916908373ffffffffffffffffffffffffffffffffffffffff160217905550611ac060086128a7565b611acb333084611dfe565b5050565b6000600560008473ffffffffffffffffffffffffffffffffffffffff1673ffffffffffffffffffffffffffffffffffffffff16815260200190815260200160002060008373ffffffffffffffffffffffffffffffffffffffff1673ffffffffffffffffffffffffffffffffffffffff16815260200190815260200160002060009054906101000a900460ff16905092915050565b6000600a54905090565b60007f80ac58cd000000000000000000000000000000000000000000000000000000007bffffffffffffffffffffffffffffffffffffffffffffffffffffffff1916827bffffffffffffffffffffffffffffffffffffffffffffffffffffffff19161480611c3857507f5b5e139f000000000000000000000000000000000000000000000000000000007bffffffffffffffffffffffffffffffffffffffffffffffffffffffff1916827bffffffffffffffffffffffffffffffffffffffffffffffffffffffff1916145b80611c485750611c4782612903565b5b9050919050565b611c588161296d565b611c97576040517f08c379a0000000000000000000000000000000000000000000000000000000008152600401611c8e90613aba565b60405180910390fd5b50565b600033905090565b816004600083815260200190815260200160002060006101000a81548173ffffffffffffffffffffffffffffffffffffffff021916908373ffffffffffffffffffffffffffffffffffffffff160217905550808273ffffffffffffffffffffffffffffffffffffffff16611d15836111eb565b73ffffffffffffffffffffffffffffffffffffffff167f8c5be1e5ebec7d5bd14f71427d1e84f3dd0314c0f7b2291e5b200ac8c7c3b92560405160405180910390a45050565b600081600001549050919050565b600080611d75836111eb565b90508073ffffffffffffffffffffffffffffffffffffffff168473ffffffffffffffffffffffffffffffffffffffff161480611db75750611db68185611acf565b5b80611df557508373ffffffffffffffffffffffffffffffffffffffff16611ddd84610640565b73ffffffffffffffffffffffffffffffffffffffff16145b91505092915050565b8273ffffffffffffffffffffffffffffffffffffffff16611e1e826111eb565b73ffffffffffffffffffffffffffffffffffffffff1614611e74576040517f08c379a0000000000000000000000000000000000000000000000000000000008152600401611e6b9061399a565b60405180910390fd5b600073ffffffffffffffffffffffffffffffffffffffff168273ffffffffffffffffffffffffffffffffffffffff161415611ee4576040517f08c379a0000000000000000000000000000000000000000000000000000000008152600401611edb906139fa565b60405180910390fd5b611ef183838360016129ae565b8273ffffffffffffffffffffffffffffffffffffffff16611f11826111eb565b73ffffffffffffffffffffffffffffffffffffffff1614611f67576040517f08c379a0000000000000000000000000000000000000000000000000000000008152600401611f5e9061399a565b60405180910390fd5b6004600082815260200190815260200160002060006101000a81549073ffffffffffffffffffffffffffffffffffffffff02191690556001600360008573ffffffffffffffffffffffffffffffffffffffff1673ffffffffffffffffffffffffffffffffffffffff168152602001908152602001600020600082825403925050819055506001600360008473ffffffffffffffffffffffffffffffffffffffff1673ffffffffffffffffffffffffffffffffffffffff16815260200190815260200160002060008282540192505081905550816002600083815260200190815260200160002060006101000a81548173ffffffffffffffffffffffffffffffffffffffff021916908373ffffffffffffffffffffffffffffffffffffffff160217905550808273ffffffffffffffffffffffffffffffffffffffff168473ffffffffffffffffffffffffffffffffffffffff167fddf252ad1be2c89b69c2b068fc378daa952ba7f163c4a11628f55a4df523b3ef60405160405180910390a46120f383838360016129b4565b505050565b60006002600083815260200190815260200160002060009054906101000a900473ffffffffffffffffffffffffffffffffffffffff169050919050565b6001816000016000828254019250508190555050565b600073ffffffffffffffffffffffffffffffffffffffff168273ffffffffffffffffffffffffffffffffffffffff1614156121bb576040517f08c379a00000000000000000000000000000000000000000000000000000000081526004016121b290613a7a565b60405180910390fd5b6121c48161296d565b15612204576040517f08c379a00000000000000000000000000000000000000000000000000000000081526004016121fb906139ba565b60405180910390fd5b6122126000838360016129ae565b61221b8161296d565b1561225b576040517f08c379a0000000000000000000000000000000000000000000000000000000008152600401612252906139ba565b60405180910390fd5b6001600360008473ffffffffffffffffffffffffffffffffffffffff1673ffffffffffffffffffffffffffffffffffffffff16815260200190815260200160002060008282540192505081905550816002600083815260200190815260200160002060006101000a81548173ffffffffffffffffffffffffffffffffffffffff021916908373ffffffffffffffffffffffffffffffffffffffff160217905550808273ffffffffffffffffffffffffffffffffffffffff16600073ffffffffffffffffffffffffffffffffffffffff167fddf252ad1be2c89b69c2b068fc378daa952ba7f163c4a11628f55a4df523b3ef60405160405180910390a46123656000838360016129b4565b5050565b6123728261296d565b6123b1576040517f08c379a00000000000000000000000000000000000000000000000000000000081526004016123a890613a5a565b60405180910390fd5b806006600084815260200190815260200160002090805190602001906123d8929190612f2c565b507ff8e1a15aba9398e019f0b49df1a4fde98ee17ae345cb5f6b5e2c27f5033e8ce7826040516124089190613b7a565b60405180910390a15050565b60008111612457576040517f08c379a000000000000000000000000000000000000000000000000000000000815260040161244e90613a9a565b60405180910390fd5b600954341461249b576040517f08c379a000000000000000000000000000000000000000000000000000000000815260040161249290613afa565b60405180910390fd5b6040518060a001604052808381526020013373ffffffffffffffffffffffffffffffffffffffff1681526020013073ffffffffffffffffffffffffffffffffffffffff16815260200182815260200160001515815250600d60008481526020019081526020016000206000820151816000015560208201518160010160006101000a81548173ffffffffffffffffffffffffffffffffffffffff021916908373ffffffffffffffffffffffffffffffffffffffff16021790555060408201518160020160006101000a81548173ffffffffffffffffffffffffffffffffffffffff021916908373ffffffffffffffffffffffffffffffffffffffff1602179055506060820151816003015560808201518160040160006101000a81548160ff0219169083151502179055509050506125d4333084611dfe565b817fb640004f1d14576d0c209e240cad0410e0d8c0c33a09375861fbadae2588a98d333084600060405161260b949392919061384a565b60405180910390a25050565b8173ffffffffffffffffffffffffffffffffffffffff168373ffffffffffffffffffffffffffffffffffffffff161415612686576040517f08c379a000000000000000000000000000000000000000000000000000000000815260040161267d90613a1a565b60405180910390fd5b80600560008573ffffffffffffffffffffffffffffffffffffffff1673ffffffffffffffffffffffffffffffffffffffff16815260200190815260200160002060008473ffffffffffffffffffffffffffffffffffffffff1673ffffffffffffffffffffffffffffffffffffffff16815260200190815260200160002060006101000a81548160ff0219169083151502179055508173ffffffffffffffffffffffffffffffffffffffff168373ffffffffffffffffffffffffffffffffffffffff167f17307eab39ab6107e8899845ad3d59bd9653f200f220920489ca2b5937696c318360405161277791906138fd565b60405180910390a3505050565b61278f848484611dfe565b61279b848484846129ba565b6127da576040517f08c379a00000000000000000000000000000000000000000000000000000000081526004016127d19061397a565b60405180910390fd5b50505050565b6000600a546103e8836127f39190613cee565b6127fd9190613d1f565b9050919050565b6000600b546103e8836128179190613cee565b6128219190613d1f565b9050919050565b606060405180602001604052806000815250905090565b606061284a82611c4f565b6000612854612828565b90506000815111612874576040518060200160405280600081525061289f565b8061287e84612b51565b60405160200161288f92919061380b565b6040516020818303038152906040525b915050919050565b600081600001549050600081116128f3576040517f08c379a00000000000000000000000000000000000000000000000000000000081526004016128ea9061395a565b60405180910390fd5b6001810382600001819055505050565b60007f01ffc9a7000000000000000000000000000000000000000000000000000000007bffffffffffffffffffffffffffffffffffffffffffffffffffffffff1916827bffffffffffffffffffffffffffffffffffffffffffffffffffffffff1916149050919050565b60008073ffffffffffffffffffffffffffffffffffffffff1661298f836120f8565b73ffffffffffffffffffffffffffffffffffffffff1614159050919050565b50505050565b50505050565b60006129db8473ffffffffffffffffffffffffffffffffffffffff16612c75565b15612b44578373ffffffffffffffffffffffffffffffffffffffff1663150b7a02612a04611c9a565b8786866040518563ffffffff1660e01b8152600401612a26949392919061388f565b602060405180830381600087803b158015612a4057600080fd5b505af1925050508015612a7157506040513d601f19601f82011682018060405250810190612a6e91906132d8565b60015b612af4573d8060008114612aa1576040519150601f19603f3d011682016040523d82523d6000602084013e612aa6565b606091505b50600081511415612aec576040517f08c379a0000000000000000000000000000000000000000000000000000000008152600401612ae39061397a565b60405180910390fd5b805181602001fd5b63150b7a0260e01b7bffffffffffffffffffffffffffffffffffffffffffffffffffffffff1916817bffffffffffffffffffffffffffffffffffffffffffffffffffffffff191614915050612b49565b600190505b949350505050565b606060006001612b6084612c98565b01905060008167ffffffffffffffff811115612ba5577f4e487b7100000000000000000000000000000000000000000000000000000000600052604160045260246000fd5b6040519080825280601f01601f191660200182016040528015612bd75781602001600182028036833780820191505090505b509050600082602001820190505b600115612c6a578080600190039150507f3031323334353637383961626364656600000000000000000000000000000000600a86061a8153600a8581612c54577f4e487b7100000000000000000000000000000000000000000000000000000000600052601260045260246000fd5b0494506000851415612c6557612c6a565b612be5565b819350505050919050565b6000808273ffffffffffffffffffffffffffffffffffffffff163b119050919050565b600080600090507a184f03e93ff9f4daa797ed6e38ed64bf6a1f0100000000000000008310612d1c577a184f03e93ff9f4daa797ed6e38ed64bf6a1f0100000000000000008381612d12577f4e487b7100000000000000000000000000000000000000000000000000000000600052601260045260246000fd5b0492506040810190505b6d04ee2d6d415b85acef81000000008310612d7f576d04ee2d6d415b85acef81000000008381612d75577f4e487b7100000000000000000000000000000000000000000000000000000000600052601260045260246000fd5b0492506020810190505b662386f26fc100008310612dd457662386f26fc100008381612dca577f4e487b7100000000000000000000000000000000000000000000000000000000600052601260045260246000fd5b0492506010810190505b6305f5e1008310612e23576305f5e1008381612e19577f4e487b7100000000000000000000000000000000000000000000000000000000600052601260045260246000fd5b0492506008810190505b6127108310612e6e576127108381612e64577f4e487b7100000000000000000000000000000000000000000000000000000000600052601260045260246000fd5b0492506004810190505b60648310612eb75760648381612ead577f4e487b7100000000000000000000000000000000000000000000000000000000600052601260045260246000fd5b0492506002810190505b600a8310612ec6576001810190505b80915050919050565b6040518060a0016040528060008152602001600073ffffffffffffffffffffffffffffffffffffffff168152602001600073ffffffffffffffffffffffffffffffffffffffff168152602001600081526020016000151581525090565b828054612f3890613e75565b90600052602060002090601f016020900481019282612f5a5760008555612fa1565b82601f10612f7357805160ff1916838001178555612fa1565b82800160010185558215612fa1579182015b82811115612fa0578251825591602001919060010190612f85565b5b509050612fae9190612fb2565b5090565b5b80821115612fcb576000816000905550600101612fb3565b5090565b6000612fe2612fdd84613bba565b613b95565b905082815260208101848484011115612ffa57600080fd5b613005848285613e33565b509392505050565b600061302061301b84613beb565b613b95565b90508281526020810184848401111561303857600080fd5b613043848285613e33565b509392505050565b60008135905061305a81614498565b92915050565b60008135905061306f816144af565b92915050565b600081359050613084816144c6565b92915050565b600081519050613099816144c6565b92915050565b600082601f8301126130b057600080fd5b81356130c0848260208601612fcf565b91505092915050565b600082601f8301126130da57600080fd5b81356130ea84826020860161300d565b91505092915050565b600081359050613102816144dd565b92915050565b60006020828403121561311a57600080fd5b60006131288482850161304b565b91505092915050565b6000806040838503121561314457600080fd5b60006131528582860161304b565b92505060206131638582860161304b565b9150509250929050565b60008060006060848603121561318257600080fd5b60006131908682870161304b565b93505060206131a18682870161304b565b92505060406131b2868287016130f3565b9150509250925092565b600080600080608085870312156131d257600080fd5b60006131e08782880161304b565b94505060206131f18782880161304b565b9350506040613202878288016130f3565b925050606085013567ffffffffffffffff81111561321f57600080fd5b61322b8782880161309f565b91505092959194509250565b6000806040838503121561324a57600080fd5b60006132588582860161304b565b925050602061326985828601613060565b9150509250929050565b6000806040838503121561328657600080fd5b60006132948582860161304b565b92505060206132a5858286016130f3565b9150509250929050565b6000602082840312156132c157600080fd5b60006132cf84828501613075565b91505092915050565b6000602082840312156132ea57600080fd5b60006132f88482850161308a565b91505092915050565b6000806040838503121561331457600080fd5b600083013567ffffffffffffffff81111561332e57600080fd5b61333a858286016130c9565b925050602061334b858286016130f3565b9150509250929050565b60006020828403121561336757600080fd5b6000613375848285016130f3565b91505092915050565b6000806040838503121561339157600080fd5b600061339f858286016130f3565b92505060206133b0858286016130f3565b9150509250929050565b60006133c68383613785565b60a08301905092915050565b6133db81613dbf565b82525050565b6133ea81613dad565b82525050565b60006133fb82613c2c565b6134058185613c5a565b935061341083613c1c565b8060005b8381101561344157815161342888826133ba565b975061343383613c4d565b925050600181019050613414565b5085935050505092915050565b61345781613dd1565b82525050565b61346681613dd1565b82525050565b600061347782613c37565b6134818185613c6b565b9350613491818560208601613e42565b61349a81613fdd565b840191505092915050565b60006134b082613c42565b6134ba8185613c7c565b93506134ca818560208601613e42565b6134d381613fdd565b840191505092915050565b60006134e982613c42565b6134f38185613c8d565b9350613503818560208601613e42565b80840191505092915050565b600061351c602d83613c7c565b915061352782613fee565b604082019050919050565b600061353f601b83613c7c565b915061354a8261403d565b602082019050919050565b6000613562603283613c7c565b915061356d82614066565b604082019050919050565b6000613585602583613c7c565b9150613590826140b5565b604082019050919050565b60006135a8601c83613c7c565b91506135b382614104565b602082019050919050565b60006135cb603383613c7c565b91506135d68261412d565b604082019050919050565b60006135ee602483613c7c565b91506135f98261417c565b604082019050919050565b6000613611601983613c7c565b915061361c826141cb565b602082019050919050565b6000613634602983613c7c565b915061363f826141f4565b604082019050919050565b6000613657602e83613c7c565b915061366282614243565b604082019050919050565b600061367a602083613c7c565b915061368582614292565b602082019050919050565b600061369d601883613c7c565b91506136a8826142bb565b602082019050919050565b60006136c0601883613c7c565b91506136cb826142e4565b602082019050919050565b60006136e3602183613c7c565b91506136ee8261430d565b604082019050919050565b6000613706602483613c7c565b91506137118261435c565b604082019050919050565b6000613729603d83613c7c565b9150613734826143ab565b604082019050919050565b600061374c602a83613c7c565b9150613757826143fa565b604082019050919050565b600061376f603783613c7c565b915061377a82614449565b604082019050919050565b60a08201600082015161379b60008501826137ed565b5060208201516137ae60208501826133d2565b5060408201516137c160408501826133d2565b5060608201516137d460608501826137ed565b5060808201516137e7608085018261344e565b50505050565b6137f681613e29565b82525050565b61380581613e29565b82525050565b600061381782856134de565b915061382382846134de565b91508190509392505050565b600060208201905061384460008301846133e1565b92915050565b600060808201905061385f60008301876133e1565b61386c60208301866133e1565b61387960408301856137fc565b613886606083018461345d565b95945050505050565b60006080820190506138a460008301876133e1565b6138b160208301866133e1565b6138be60408301856137fc565b81810360608301526138d0818461346c565b905095945050505050565b600060208201905081810360008301526138f581846133f0565b905092915050565b6000602082019050613912600083018461345d565b92915050565b6000602082019050818103600083015261393281846134a5565b905092915050565b600060208201905081810360008301526139538161350f565b9050919050565b6000602082019050818103600083015261397381613532565b9050919050565b6000602082019050818103600083015261399381613555565b9050919050565b600060208201905081810360008301526139b381613578565b9050919050565b600060208201905081810360008301526139d38161359b565b9050919050565b600060208201905081810360008301526139f3816135be565b9050919050565b60006020820190508181036000830152613a13816135e1565b9050919050565b60006020820190508181036000830152613a3381613604565b9050919050565b60006020820190508181036000830152613a5381613627565b9050919050565b60006020820190508181036000830152613a738161364a565b9050919050565b60006020820190508181036000830152613a938161366d565b9050919050565b60006020820190508181036000830152613ab381613690565b9050919050565b60006020820190508181036000830152613ad3816136b3565b9050919050565b60006020820190508181036000830152613af3816136d6565b9050919050565b60006020820190508181036000830152613b13816136f9565b9050919050565b60006020820190508181036000830152613b338161371c565b9050919050565b60006020820190508181036000830152613b538161373f565b9050919050565b60006020820190508181036000830152613b7381613762565b9050919050565b6000602082019050613b8f60008301846137fc565b92915050565b6000613b9f613bb0565b9050613bab8282613ea7565b919050565b6000604051905090565b600067ffffffffffffffff821115613bd557613bd4613fae565b5b613bde82613fdd565b9050602081019050919050565b600067ffffffffffffffff821115613c0657613c05613fae565b5b613c0f82613fdd565b9050602081019050919050565b6000819050602082019050919050565b600081519050919050565b600081519050919050565b600081519050919050565b6000602082019050919050565b600082825260208201905092915050565b600082825260208201905092915050565b600082825260208201905092915050565b600081905092915050565b6000613ca382613e29565b9150613cae83613e29565b9250827fffffffffffffffffffffffffffffffffffffffffffffffffffffffffffffffff03821115613ce357613ce2613f21565b5b828201905092915050565b6000613cf982613e29565b9150613d0483613e29565b925082613d1457613d13613f50565b5b828204905092915050565b6000613d2a82613e29565b9150613d3583613e29565b9250817fffffffffffffffffffffffffffffffffffffffffffffffffffffffffffffffff0483118215151615613d6e57613d6d613f21565b5b828202905092915050565b6000613d8482613e29565b9150613d8f83613e29565b925082821015613da257613da1613f21565b5b828203905092915050565b6000613db882613e09565b9050919050565b6000613dca82613e09565b9050919050565b60008115159050919050565b60007fffffffff0000000000000000000000000000000000000000000000000000000082169050919050565b600073ffffffffffffffffffffffffffffffffffffffff82169050919050565b6000819050919050565b82818337600083830152505050565b60005b83811015613e60578082015181840152602081019050613e45565b83811115613e6f576000848401525b50505050565b60006002820490506001821680613e8d57607f821691505b60208210811415613ea157613ea0613f7f565b5b50919050565b613eb082613fdd565b810181811067ffffffffffffffff82111715613ecf57613ece613fae565b5b80604052505050565b6000613ee382613e29565b91507fffffffffffffffffffffffffffffffffffffffffffffffffffffffffffffffff821415613f1657613f15613f21565b5b600182019050919050565b7f4e487b7100000000000000000000000000000000000000000000000000000000600052601160045260246000fd5b7f4e487b7100000000000000000000000000000000000000000000000000000000600052601260045260246000fd5b7f4e487b7100000000000000000000000000000000000000000000000000000000600052602260045260246000fd5b7f4e487b7100000000000000000000000000000000000000000000000000000000600052604160045260246000fd5b6000601f19601f8301169050919050565b7f4552433732313a2063616c6c6572206973206e6f7420746f6b656e206f776e6560008201527f72206f7220617070726f76656400000000000000000000000000000000000000602082015250565b7f436f756e7465723a2064656372656d656e74206f766572666c6f770000000000600082015250565b7f4552433732313a207472616e7366657220746f206e6f6e20455243373231526560008201527f63656976657220696d706c656d656e7465720000000000000000000000000000602082015250565b7f4552433732313a207472616e736665722066726f6d20696e636f72726563742060008201527f6f776e6572000000000000000000000000000000000000000000000000000000602082015250565b7f4552433732313a20746f6b656e20616c7265616479206d696e74656400000000600082015250565b7f4f6e6c79206d61726b6574706c616365206f776e65722063616e20757064617460008201527f6520746865206c697374696e6720707269636500000000000000000000000000602082015250565b7f4552433732313a207472616e7366657220746f20746865207a65726f2061646460008201527f7265737300000000000000000000000000000000000000000000000000000000602082015250565b7f4552433732313a20617070726f766520746f2063616c6c657200000000000000600082015250565b7f4552433732313a2061646472657373207a65726f206973206e6f74206120766160008201527f6c6964206f776e65720000000000000000000000000000000000000000000000602082015250565b7f45524337323155524953746f726167653a2055524920736574206f66206e6f6e60008201527f6578697374656e7420746f6b656e000000000000000000000000000000000000602082015250565b7f4552433732313a206d696e7420746f20746865207a65726f2061646472657373600082015250565b7f5072696365206d757374206265206174206c6561737420310000000000000000600082015250565b7f4552433732313a20696e76616c696420746f6b656e2049440000000000000000600082015250565b7f4552433732313a20617070726f76616c20746f2063757272656e74206f776e6560008201527f7200000000000000000000000000000000000000000000000000000000000000602082015250565b7f5072696365206d75737420626520657175616c20746f206c697374696e67207060008201527f7269636500000000000000000000000000000000000000000000000000000000602082015250565b7f4552433732313a20617070726f76652063616c6c6572206973206e6f7420746f60008201527f6b656e206f776e6572206f7220617070726f76656420666f7220616c6c000000602082015250565b7f4f6e6c79204974656d204f776e65722063616e20706572666f726d207468697360008201527f206f7065726174696f6e00000000000000000000000000000000000000000000602082015250565b7f506c65617365207375626d6974207468652061736b696e67207072696365207460008201527f6f20636f6d706c65746520746865207075726368617365000000000000000000602082015250565b6144a181613dad565b81146144ac57600080fd5b50565b6144b881613dd1565b81146144c357600080fd5b50565b6144cf81613ddd565b81146144da57600080fd5b50565b6144e681613e29565b81146144f157600080fd5b5056fea26469706673582212201c083d9eb23ac8afbf2a589fed28908a3e7241a8d2ecb12699708ff185f5fe1464736f6c63430008040033",
  "linkReferences": {},
  "deployedLinkReferences": {}
}